:020000040800F2
:100000008056002055030008CF300008F12D00086D
:10001000CD3000081D060008113E00080000000059
:100020000000000000000000000000009502000831
:10003000D10B000800000000F1020008353700086D
:100040006F0300086F0300086F0300086F030008C8
:100050006F0300086F0300086F0300086F030008B8
:100060006F0300086F0300086F0300086F030008A8
:100070006F0300086F0300086F0300086F03000898
:100080006F0300086F0300086F0300086F03000888
:10009000210600086F0300086F0300086F030008C3
:1000A0006F0300086F0300086F0300086F03000868
:1000B0006F0300086F0300086F0300086F03000858
:1000C0006F0300086F0300086F0300086F03000848
:1000D0006F0300080D3D00086F0300086F03000860
:1000E0006F0300086F0300086F0300086F03000828
:1000F000053800086F0300086F0300086F0300084D
:100100006F0300086F0300086F0300086F03000807
:100110006F0300086F0300086F0300086F030008F7
:100120006F0300086F030008490B00086F03000805
:100130006F0300086F0300086F0300086F030008D7
:10014000750600086F0300086F0300086F030008BE
:100150006F0300086F0300086F0300086F030008B7
:100160006F0300086F0300086F0300086F030008A7
:100170006F0300086F0300086F0300080000000011
:100180006F0300086F0300086F0300086F03000887
:100190006F0300086F0300086F0300086F03000877
:1001A00000000000000000006F03000800F002F8EB
:1001B00000F060F80AA090E8000C82448344AAF1A1
:1001C0000107DA4501D100F055F8AFF2090EBAE89F
:1001D0000F0013F0010F18BFFB1A43F0010318477B
:1001E000C4810000E481000010F8013B0A4413F0D0
:1001F000030408BF10F8014B1D1108BF10F8015B84
:10020000641E05D010F8016B641E01F8016BF9D172
:10021000002D15D010F8014B03F00C030C2BA1EBB3
:1002200004040ABF10F8013BA4EB8314A4EB0324DD
:1002300005F1010314F8016B5B1E01F8016BF9D5A0
:10024000914238BF10F8013BD1D3704700230024FE
:1002500000250026103A28BF78C1FBD8520728BFD6
:1002600030C148BF0B6070471FB507F042FD1FBD8E
:1002700010B510BD00F074F91146FFF7F5FF05F059
:10028000C7FE00F092F903B4FFF7F2FF03BC00F0E1
:1002900095F900002C4B19680868B0E8F04F80F31E
:1002A0000988BFF36F8F4FF0000080F3118870470B
:1002B0000000000008480068006880F308884FF0DC
:1002C000000080F3148862B661B6BFF34F8FBFF3AE
:1002D0006F8F00DF00BF00BF08ED00E0DFF80C000B
:1002E000016841F470010160704700BF88ED00E0D3
:1002F000EFF30980BFF36F8F134B1A681EF0100FD6
:1003000008BF20ED108A20E9F04F106009B44FF0CB
:10031000500080F31188BFF34F8FBFF36F8F06F04B
:10032000FBFB4FF0000080F3118809BC19680868D6
:10033000B0E8F04F1EF0100F08BFB0EC108A80F349
:100340000988BFF36F8F70471C000020EFF3058012
:10035000704700000948804709480047FEE7FEE76C
:10036000FEE7FEE7FEE7FEE7FEE7FEE7FEE7FEE765
:1003700004480549054A064B70470000F537000858
:10038000AD010008805000208056002080520020DF
:100390008052002053EA020C00F069802DE9F04BF6
:1003A0004FF00006002B1FBFB3FA83F503FA05F4E4
:1003B00024FA05F65E4012BF1643B2FA82F502FA3D
:1003C00005F4C5F120051EBF22FA05FC44EA0C0421
:1003D000203556EA044C4FEA144418BF641C4FF011
:1003E00000084FF00009904271EB030C39D300294B
:1003F00019BFB1FA81F701FA07F6B0FA80F700FAEF
:1004000007F6C7F120071EBF20FA07FC46EA0C06D4
:100410002037B6FBF4FCA7EB0507103F07F01F0BD6
:10042000CBF120060CFA0BFB2CFA06F644BFB346C0
:100430000026202FA4BF5E464FF0000B5BEA060C9F
:1004400008BF4FF0010B19EB0B09ABFB027C48EB2B
:100450000608C01B06FB02CC0BFB03CC71EB0C01A6
:10046000C1E70B46024641464846BDE8F08B13B54E
:100470004FF000004FF00001AFF30080BDE81C40DA
:10048000704710B5203AC0F00B80B1E81850203A00
:10049000A0E81850B1E81850A0E81850BFF4F5AF24
:1004A0005FEA027C24BFB1E81850A0E8185044BFAE
:1004B00018C918C0BDE810405FEA827C24BF51F81B
:1004C000043B40F8043B08BF7047D20728BF31F80F
:1004D000023B48BF11F8012B28BF20F8023B48BF60
:1004E00000F8012B70474FF0000200B51346944608
:1004F0009646203922BFA0E80C50A0E80C50B1F17C
:100500002001BFF4F7AF090728BFA0E80C5048BF8F
:100510000CC05DF804EB890028BF40F8042B08BF2D
:10052000704748BF20F8022B11F0804F18BF00F829
:10053000012B704770477047704710B500F008F8FE
:10054000006810BD10B5044600F002F8046010BD4C
:10055000004870472050002000487047205000207D
:100560007546FFF7F9FFAE4605006946534620F091
:100570000700854618B020B5FFF7FAFEBDE8204019
:100580004FF000064FF000074FF000084FF0000B4F
:1005900021F00701AC46ACE8C009ACE8C009ACE802
:1005A000C009ACE8C0098D46704710B50446AFF3EA
:1005B00000802046BDE81040FFF765BE01491820C5
:1005C000ABBEFEE7260002007047000070B58AB09F
:1005D000282210496846FFF754FF0A2000246D4680
:1005E00000EBD0760DE000BF35F83400C82180B2B2
:1005F00005F08EFB05EBC4004068800001F09AFA1C
:10060000641CB4EB660FEFDB0349002008600AB0FE
:1006100070BD00001480000834180040FEE70000A0
:10062000014800F03EBE0000C80A002038B50E4C5C
:1006300040F2FF1525600025A560E56008252561CD
:100640000A4C050A25706070080AA070E170100A53
:1006500020716271180AA071E3716B46224602494B
:10066000034800F0B5FC38BD404E00209C0000203F
:10067000C80A0020014800F014BE0000F00A002063
:1006800038B50E4C4FF4007525600025A560E56077
:10069000082525610A4C050A25706070080AA070BB
:1006A000E170100A20716271180AA071E3716B4643
:1006B00022460249034800F08BFC38BD584E00200A
:1006C000A4000020F00A00202DE9F05F5A4A5B4B9D
:1006D000107803F5187A90B10020514600EB4004E1
:1006E00004EB001403EB840494ED0F0A01EB800487
:1006F000401C84ED000A0828F0DB00201070DFF8B1
:1007000040B1DFF840910024984600BF9BF80000FC
:1007100014284FF000007DD09FED4B0A4FEA0801EE
:1007200000EB400202EB001201EB8202401C82ED62
:100730000C0A0828F4DB00BF0AEB840090ED000AE5
:100740009FED421A4248C4EBC40100EB81076421CB
:10075000B869C0EE010A90FBF1F000EE100A04EB5C
:10076000440000EB041608EB8605B8EEC00AA96C3D
:1007700028468847B7F90800D5ED0A0A00EE100AA6
:1007800009EB8600816CB8EEC00A8847641C082C0F
:10079000BCDB99ED430A4C46BDEEC00A10EE100AD0
:1007A00099ED300A03B2BDEEC00A10EE100A99EDC1
:1007B0001D0A02B2BDEEC00A10EE100A99ED0A0A37
:1007C00001B2BDEEC00A10EE100A00B2FFF758FFEA
:1007D00094ED8F0ABDEEC00A10EE100A94ED7C0A6B
:1007E00003B2BDEEC00A10EE100A94ED690A02B21F
:1007F000BDEEC00A10EE100A94ED560A01B2BDEE2D
:10080000C00A10EE100A00B2FFF710FFBDE8F05F5B
:100810000A2000E001E005F022BC9FED0E0A4146EF
:1008200000EB400202EB001201EB8202401C82ED61
:100830000C0A0828F4DB7FE7C4000020A84B002046
:10084000C50000204849002000FC7F460000C84247
:10085000884E00200090D34570B56F4C05462DEDB5
:10086000108B206907F0D4F941EC100B9FED6BABB6
:10087000B0EE4A1AF0EE6A1A03F03AFFB0EE408A80
:10088000F0EE608AE06807F0C3F941EC100BB0EEBF
:100890004A1AF0EE6A1A03F02BFFB0EE401AF0EE9F
:1008A000601A53EC182B51EC110B06F03BFB41EC9A
:1008B000100B04F0A9FD51EC100B06F001FB08EE43
:1008C000100A584918EE100A884202DAB2EE048A79
:1008D00006E018EE100A5449884201DDB3EE0E8A94
:1008E000D4ED030A80EE880A10EE100A07F090F9A2
:1008F00041EC100B03F064FC9FED4CCB51EC100B62
:1009000053EC1C2B06F0E6FD9FED4ADB53EC1D2B50
:1009100006F0C4FBB3EE040A41EC190B28EE000A02
:1009200010EE100A07F074F9B0EE4AFAF0EE6AFA27
:1009300041EC1B0BB0EE4F1AF0EE6F1A9FED3F0B20
:1009400003F0D6FEB0EE40EAF0EE60EAB0EE4F1AE9
:10095000F0EE6F1A9FED3B0B03F0CAFEB0EE40AA1B
:10096000F0EE60AA18EE100A07F052F941EC100BF5
:10097000B0EE4F1AF0EE6F1A03F0BAFEB0EE401A66
:10098000F0EE601A53EC1A2B51EC110B06F0CAFA78
:1009900053EC1E2B07F052F853EC1B2B06F07EFB9A
:1009A00041EC100B03F060FA53EC1C2B51EC100BD4
:1009B00006F090FD53EC1D2B06F070FB41EC1A0B7A
:1009C00053EC192B07F03AF806F07AFA08EE100A01
:1009D00053EC192B51EC1A0B06F0A4FA06F070FA3E
:1009E00000EE900A9FED190A012D0CD06D1C07D165
:1009F00038EE401A30EEC00A84ED051A84ED060A7E
:100A0000BDEC108B70BD38EE401A30EEC00A84ED9C
:100A1000061A84ED050AF3E7C40000200000000078
:100A200000000040000020410000F04100000000F4
:100A30000080664000000060FB21094000000000CB
:100A40000000344000000000000024400000B442D8
:100A50002DE9F041174E194F00242DED068BF0EED5
:100A6000418AB0EE618AB0EE409A9FED13AAF0EE93
:100A7000609A00BF04EB440000EB041506EB850010
:100A8000B0EE691AF0EE4A0AB0EE490A05F0B0FB82
:100A900007EB8500B0EE481AF0EE4A0AB0EE680A9D
:100AA00005F0A6FB641C082CE4DBBDEC068BBDE85E
:100AB000F0810000A84B0020000000004849002001
:100AC00010B5FFF7C5FF002002F0E4FC012002F0A2
:100AD000E1FC022002F0DEFCBDE81040032002F041
:100AE000D9BC10B5FFF7B4FF022002F0D3FCBDE87B
:100AF0001040032002F0CEBC10B5FFF7A9FF002084
:100B000002F0C8FCBDE81040012002F0C3BC70B583
:100B10002DED028B82B00DF1200CB0EE418A9CE8E5
:100B20007000CDE9004502F043FDBDEEC80A10EEAD
:100B3000100AFFF791FE02B03046BDEC028BBDE813
:100B4000704002F0A7BC0000014800F0B9BE0000F0
:100B5000A40B002001681823CAB2103AB2FBF3F2CA
:100B6000054B6FF30901032A9B5CC36500D9091D7E
:100B70008165084670470000147E000810B50146E4
:100B800000208B698A6A4FF0C07453B1B3F5005FDF
:100B900015D072B1012A0CD0022A0AD0032A09D139
:100BA00004E01AB1012A06D0022A03D1C96AC90198
:100BB00000D5012010BDC96AA142FAD010BD002A9B
:100BC000F7D0012AF2D0022AF3D0032AF3D010BDC5
:100BD000704772B6FEE700002DE9F0412DED048B61
:100BE0009FED4C8A01F0D8F800EE100AB8EE401ADA
:100BF0009FED490A494C4A49C1EE000A94ED001A9A
:100C0000484D494E494FC1EE001A30EEE10A10EE50
:100C1000100A884221DA9FED460B04F091FB9FED0C
:100C2000461B51EC100B53EC112B06F053FC06F055
:100C300047F99FED430B286003F072FC9FED421BC8
:100C400051EC100B53EC112B06F044FC06F038F974
:100C500030600120FFF700FE4CE010EE100A304932
:100C6000494208443A49884233D29FED3A9BB0EE5C
:100C7000490AF0EE690A04F063FBB0EE408A94ED95
:100C8000010AF0EE608AB1EE400A10EE100A06F09A
:100C9000BFFF53EC182B06F01DFC06F011F9B0EE67
:100CA000490AF0EE690A286003F03AFCB0EE408A87
:100CB000F0EE608A606806F0ABFF53EC182B06F08C
:100CC00009FC06F0FDF830600120FFF7C5FD103784
:100CD00010E010EE100A2149A0F17E50884211D296
:100CE00001209FED1F0A85ED000A86ED008AFFF7BF
:100CF000B3FD203797EC040ABDEC048BBDE8F0414E
:100D0000FFF7DEBE174915200870BDEC048BBDE867
:100D1000F08100003333634100007A4484000020F6
:100D2000CDCC4C3FD0000020D4000020347E000801
:100D3000000000802F1BD43F0000006066662CC0BE
:100D4000000000C00C75D73F0000006066662C40B4
:100D500033333300000000804C50E13F666666008C
:100D600066666640C50000202DE9F0412DED0A8B36
:100D70009FED778A01F010F800EE100AB8EE401AE5
:100D80009FED740A744E7549C1EE000A96ED001A83
:100D9000734C744D744FC1EE001A30EEE10A10EE40
:100DA000100A884259DA9FED710B04F0C9FA9FEDE1
:100DB00071CB51EC100B53EC1C2B06F08BFB06F0A7
:100DC0007FF89FED6EBB2060B0EE4B0AF0EE6B0A31
:100DD00003F0A6FB9FED6B8B51EC100B53EC182B23
:100DE00006F078FB06F06CF828600120FFF734FD70
:100DF000303797EC040AB0EE409AB0EE41AAF0EE1C
:100E000061AAF0EE609AFFF777FEB0EE4B0AF0EEC3
:100E10006B0A04F095FA53EC1C2B51EC100B06F006
:100E200059FB06F04DF8B0EE4B0AF0EE6B0A20606D
:100E300003F076FB53EC182B51EC100B06F04AFB39
:100E400006F03EF828600120FFF706FDF0EE6A1A72
:100E5000B0EE4A1AF0EE690A6AE010EE100A3F4955
:100E6000494208444949884234D29FED490B04F075
:100E700067FAB0EE408A96ED010AF0EE608AB1EEB4
:100E8000400A10EE100A06F0C3FE53EC182B06F0D1
:100E900021FB06F015F89FED400B206003F040FBAE
:100EA000B0EE408AF0EE608A706806F0B1FE53EC56
:100EB000182B06F00FFB06F003F828600120FFF75F
:100EC000CBFC403797EC040ABDEC0A8BBDE8F0413F
:100ED000FFF7F6BD10EE100A3149A0F17E508842AE
:100EE0002ED2B1EE040A84ED000A85ED008A0120BD
:100EF000FFF7B2FC503797EC040AB0EE409AB0EE20
:100F0000418AF0EE619AF0EE608AFFF7F5FD9FED01
:100F1000250A012084ED000AB2EE0E0A85ED000AD2
:100F2000FFF79AFCF0EE691AB0EE481AF0EE680A84
:100F3000B0EE490ABDEC0A8BBDE8F041FFF7D1BD28
:100F4000194911200870BDEC0A8BBDE8F081000042
:100F50003333634100007A4484000020CDCC4C3F01
:100F6000D0000020D4000020347E0008000000C023
:100F700029AAD43F0000006066662CC0000000C0B3
:100F80000C75D73F0000006066662C403333330099
:100F9000000000005832E03F000000804C50E13F6C
:100FA0006666660000000000C500002090F8202062
:100FB000012A07D0022A05D0416A41F4802141620A
:100FC00001207047006842690A434261002070476F
:100FD000F0B590F820500468A468012D05D0022DCA
:100FE00003D0416A41F480215DE014F0406F01D1EB
:100FF000E50055D5C4F30164022C03D9416A41F4DC
:10100000000150E00125A5401D608D684FF4C073BC
:101010009DB1CE6835434E6845EAC605066803EBC8
:101020000417F5514FF4C275076805EB04150E69F6
:101030007E51097D012905D009E00E88CD6845EA79
:101040004655EBE701684E5946F480764E511179CA
:10105000D579567941EA056195792D0445EA062549
:1010600029434FF4C676056806EB0416A95111789A
:10107000D57841EA0561957852782D0445EA022237
:1010800011434FF4C475026805EB04155151006813
:1010900003EB0411425842F0010242500020F0BD1F
:1010A000416A41F4001141620120F0BD10B590F891
:1010B0002020012A07D0022A05D0416A41F480216C
:1010C0004162012010BD3B48D0F8002242F00102ED
:1010D000C0F80022D0F8002222F47C52C0F800228E
:1010E000D0F800224B6A42EA0322C0F800220A7DAF
:1010F00002F01F0301229A40D0F81C329343C0F83B
:101100001C32CB69B3B9D0F80C329343C0F80C321F
:101110008C894B6864F31F434C6900EBC404C4F82A
:1011200040320C890B6864F31F434C6900EBC40424
:10113000C4F84432CB69012B16D1D0F80C321343DA
:10114000C0F80C320C884B6864F31F434C6900EB09
:10115000C404C4F840320C89CB6864F31F434C6963
:1011600000EBC404C4F844328B69002BD0F804327D
:101170000ED01343C0F804320B69002BD0F81432A0
:1011800008D01343C0F81432096A012904D008E0DA
:101190009343EFE79343F5E7D0F81C121143C0F8EF
:1011A0001C12D0F8001221F00101C0F8001200203A
:1011B00010BD000000640040704730B590F820403A
:1011C000012C05D0022C03D0416A41F480215DE05E
:1011D0000468002955D02469A40754D04FF4D8746A
:1011E000056804EB01142D5915F004059560056898
:1011F0002D594ED0ED08556005682C5904F00204B5
:10120000D4604FF4DA74056804EB01142D5905F02D
:101210000F05156105682D59C5F30725956105680A
:101220002C59240C54614FF4DC72046802EB011257
:10123000A4581C700468A458240A5C700468A4585C
:10124000240C9C700468A258120EDA704FF4DE72FF
:10125000046802EB0112A4581C710468A458240A03
:101260005C710468A458240C9C710468A258120E86
:10127000DA71006881B1016941F02001016100204B
:1012800030BDE468A8E7416A41F4001141620120E1
:1012900030BD6D0D1560AFE7C16841F02001C16040
:1012A000EDE72DE9F05F0546006800244669D0F8B7
:1012B00004908768D0F80CB0D0F810A0D0F818804F
:1012C000F10748D0F90714D001218160B80703D590
:1012D000284600F094FA0CE0780702D54FF4006439
:1012E00007E0380702D54FF4805402E0284600F0AA
:1012F00085FAF80516D529684FF480708860B8051E
:1013000003D5284600F07DFA0CE0780502D544F4B8
:10131000005407E0380502D544F4804402E0284632
:1013200000F06EFAF80316D529684FF48030886013
:10133000B80303D5284600F066FA0CE0780302D51E
:1013400044F4004407E0380302D544F4803402E05A
:10135000284600F057FA300707D55FEACB6004D57E
:101360002968102044F40074C86070074FF0080723
:1013700007D55FEA0B7004D52868C760284600F0DF
:1013800099F9B00706D52868C068800702D02846BA
:1013900000F092F9700607D55FEACA6004D52968A3
:1013A000102044F480640861B00607D55FEA0A7033
:1013B00004D528680761284600F0F0F9F00606D544
:1013C00028680069800702D0284600F0E8F9B003D9
:1013D00008D55FEAC96005D529681020486028460D
:1013E00000F0DEF9F00307D55FEA097004D528683C
:1013F0004760284600F008FA300446D55FEA497095
:1014000040D5F00504D55FEAC87001D044F001046E
:10141000B00504D55FEA887001D544F00204700578
:1014200004D55FEA487001D544F00404300529D59D
:1014300018F0700F26D008F07000402815D006DC98
:10144000102809D020280AD0302816D10AE05028C8
:101450000ED0602811D10EE044F008040DE044F0F5
:1014600010040AE044F0200407E044F0400404E0E3
:1014700044F0800401E044F480742868816921F01C
:1014800070018161296804204860002C05D0686AD9
:10149000204368622846FFF78FFEBDE8F09F70B5D5
:1014A000040003D094F8200010B104E0012070BDC6
:1014B000204600F081F82068016841F001010160D8
:1014C00000F06AFC0546052604E000F065FC401BC0
:1014D0000A2811D820684068C007F6D02068016843
:1014E00021F00201016000F057FC05460BE000F01E
:1014F00053FC401B0A2806D9606A40F40030606241
:1015000084F82060D2E7206840688007EFD4207E0E
:101510000128206801683DD021F080010160607ED3
:1015200001282068016838D021F040010160A07EC8
:1015300001282068016833D021F020010160E07E9D
:101540000128206801682ED041F010010160207F41
:1015500001282068016829D021F008010160607F1E
:1015600001282068016824D021F004010160D4E939
:1015700002010843D4E90412114308436168491E7B
:1015800008432168C86100206062012084F82000BF
:10159000002070BD41F08001C0E741F04001C5E787
:1015A00041F02001CAE721F01001CFE741F0080126
:1015B000D4E741F00401D9E7F0B587B0044614211F
:1015C0006846FEF790FF364B3648DFF8D0E01968E2
:1015D000D4F800C0334A032502260927103000241E
:1015E000491CF44522D11960012907D1016841F055
:1015F00000710160006800F000700590106840F014
:10160000080010601068CDE9005600F00800CDE930
:10161000047069462448CDE9024500F09DFA002295
:101620000521142000F056FC142033E0DFF87CE0A4
:10163000F44531D1D0F800C04CF0806CC0F800C047
:10164000D0F800C001290CF0806CCDF814C01960EE
:1016500007D1016841F000710160006800F000707E
:101660000590106840F002001060106802AB00F0B6
:10167000020005904FF44050CDE9000683E8B00029
:1016800069460B4800F068FA00220521402000F06E
:1016900021FC402000F010FC07B0F0BD00640040C9
:1016A0000400002030380240000C02400068004076
:1016B000000402407047000030B58DB002AB05AAAF
:1016C0000021FFF77AFD05982C4A401EC0B2107029
:1016D000BDF808104BBAC0EBC001294820F82130F2
:1016E00053683BB100EB810430F82150E58125823D
:1016F0005B1E5360BDF80A2000EB810452BA2281C0
:10170000BDF80C2052BA62819DF80E20227330F889
:101710002120B4F90E30D21AB2F5805F02DD626981
:10172000521E04E012F5805F02DA6269521C6261A7
:1017300030F82120E28130F82100B4F91010401A6D
:10174000616900EB4130A06105F05DFE9FED0D1B6E
:1017500053EC112B05F0BEFE9FED0C1B53EC112B2F
:1017600005F09CFC9FED0B1B53EC112B05F0B2FE1A
:1017700005F0ECFD60600DB030BD00008C00002075
:10178000884E00200000000000807640000000002D
:1017900000003340000000000000203F7047704709
:1017A0007047000070B5044690F82000012804D06E
:1017B000606A40F40020606218E0022084F8200093
:1017C0002068016821F00101016000F0E5FA05469A
:1017D0000EE000BF00F0E0FA401B0A2808D9606A5A
:1017E00040F400306062052084F82000012070BDC4
:1017F00020684068C007EDD1606270BD70477047D7
:10180000704770477047704770472DE9F0410446B4
:10181000876D00F0C1FA064694F8350000250228CD
:1018200006D08020606584F834500120BDE8F08146
:101830002068016821F0160101602068416921F0EB
:1018400080014161206C08B9A06C20B1206801685A
:1018500021F0080101602068016821F001010160A8
:101860000CE000F099FA801B052807D9202060655C
:10187000032084F8350084F83450D7E720680068E6
:10188000C007EED194F85C103F208840B86001207A
:1018900084F8350084F834500020C7E790F83510FC
:1018A000022903D08021416501207047052180F87D
:1018B00035100068016821F00101016000207047C7
:1018C0002DE9F84304464FF00009CDF80090634835
:1018D0004FF41651A56D0068B0FBF1F72E6894F82F
:1018E0005C10082000FA01F131420FD021680A682B
:1018F00052070BD50A6822F004020A6094F85C10C3
:101900008840A860606D40F00100606594F85C104C
:101910004FF0010808FA01F0304208D02168496907
:10192000090604D5A860606D40F00200606594F877
:101930005C1004208840304208D02168096889077B
:1019400004D5A860606D40F00400606594F85C10F8
:1019500010208840304218D021680968090714D542
:10196000A86020680168490304D50068000308D511
:10197000A16C07E00168C90503D4016821F00801E2
:101980000160216C09B12046884794F85C10202042
:101990008840304231D021680968C9062DD5A86039
:1019A00094F8350005282068016806D0490347D51A
:1019B000006800031DD4616C1CE021F01601016079
:1019C0002068416921F080014161206C08B9A06C58
:1019D00020B12068016821F00801016094F85C10D2
:1019E0003F208840A86084F8358084F83490216DC9
:1019F0001FE0E16B09B120468847606D00282BD0BD
:101A0000606DC00714D0052084F835002068016897
:101A100021F0010101600098401C0090B84203D8F9
:101A200020680068C007F6D184F8358084F83490C7
:101A3000E16C002910D001B02046BDE8F043084712
:101A40000168C905D5D4016821F01001016084F84E
:101A5000358084F83490CCE7BDE8F8831800002086
:101A60002DE9F041044600F097F906465CB10220EA
:101A700084F83500002584F834502068016821F08E
:101A8000010101600DE00120BDE8F08100F084F962
:101A9000801B052805D920206065032084F83500C7
:101AA000F2E720680068C007F0D12268116820487A
:101AB0000140D4E901031843D4E903363343184302
:101AC00063691843A3691843E3691843236A1843F9
:101AD0000843616A042903D1D4E90B13194308436D
:101AE000106020684069666A20F0070130460E43A6
:101AF000012704280CD1A06A0643E06A40B12046C1
:101B0000FFF73CF820B14020606584F83570BAE7F3
:101B1000206846612046FFF71DF894F85C203F21BD
:101B200091408160656584F835700020ACE7000065
:101B30003F8010F070B5044600F02EF90546601C99
:101B400002D004480078044400F026F9401BA0426B
:101B5000FAD370BD0C0000202DE9F84FDFF8F8A192
:101B60000022012403254FF00F090AF1040BAAF10A
:101B7000040E00BF0B6804FA02F63340B34270D182
:101B80000F7907F00307012F01D0022F16D18768C4
:101B90004FEA420805FA08FC27EA0C07D1F80CC006
:101BA0000CFA08FC4CEA070CC0F808C04768B743B9
:101BB0000E79C6F3001696403E4346600E79F64312
:101BC000B6070AD0C7684FEA420C05FA0CF6B743CD
:101BD0008E6806FA0CF63E43C6600E7906F00306E0
:101BE000022E10D1D60800EB8608D8F820605707DF
:101BF0004FEAD76C09FA0CF7BE430F6907FA0CF7E6
:101C00003743C8F8207006684FEA420C05FA0CF713
:101C1000BE430F7907F0030707FA0CF73743076055
:101C20004E6816F4403F1CD04C4E376847F480474E
:101C30003760366822F0030706F480460096484E67
:101C400007EB060CDCF8086897073F0F09FA07F85E
:101C500026EA0806DFF80C81404503D14FF0000862
:101C600041E072E0DFF80081404502D14FF0010809
:101C700039E0DFF8F880404502D14FF0020832E049
:101C8000DFF8EC80404502D14FF003082BE0DFF88D
:101C9000E480404502D14FF0040824E0DFF8D8800A
:101CA000404502D14FF005081DE0DFF8D0804045E7
:101CB00002D14FF0060816E0DFF8C480404502D19B
:101CC0004FF007080FE0DFF8BC80404502D14FF02D
:101CD000080808E0DFF8B080404502D14FF009085D
:101CE00001E04FF00A0808FA07F848EA0608CCF8BD
:101CF0000888DAF800605746D1F804C09E435FEACE
:101D0000CC2C00D51E433E60DBF800605F46D1F866
:101D100004C09E435FEA8C2C00D51E433E60DEF873
:101D200000607746D1F804C09E435FEA8C3C00D542
:101D30001E433E60084F083F3E68D1F804C09E43F2
:101D40005FEACC3C00D51E433E60521C102AFFF4D3
:101D500011AFBDE8F88F0000083C01404438024054
:101D60000030014000000240000402400008024030
:101D7000000C024000100240001402400018024013
:101D8000001C024000200240002402400AB1816190
:101D900070470904FBE700000148806870470000B5
:101DA0000C0000200248816802781144816070476D
:101DB0000C0000200B4810B5016841F4007101606F
:101DC000016841F480610160016841F48071016043
:101DD000032000F09FF80F2000F006F800F050F804
:101DE000002010BD003C024030B505461F4887B0BA
:101DF0000024016841F080010160006806A900F03C
:101E00008000009001A800F031F90498A8B100F01A
:101E10004DF940001649174AB0FBF1F11648491E2A
:101E2000026040F2E732C0E90324C0E90114846192
:101E300000F046FB040003D015E000F037F9E9E7B5
:101E40000D4800F07FFB04000DD12C2000F034F889
:101E5000102D07D2002229462C2000F03BF807481D
:101E6000056000E0012407B0204630BD4038024044
:101E700040420F00001C0040100C00201000002009
:101E80000C4882B0016841F480410160006800F4B0
:101E9000804000900748001F016841F080510160B8
:101EA0000068002200F0805000900F21901E02B0C8
:101EB00000F010B844380240002809DB00F01F028F
:101EC000012191404009800000F1E020C0F800119C
:101ED00070470000F0B40E4B1B680C46C3F302239E
:101EE000C3F10705042D00D90425191D072901D2C6
:101EF000002300E0DB1E012606FA05F1491E214001
:101F000099409E40761E16403143F0BC01F099BFC7
:101F10000CED00E0064900F0070208684FF6FF03E9
:101F2000184040EA0220034A10430860704700004E
:101F30000CED00E00000FA052DE9F0470E46050023
:101F400065D0DFF81481D8F80000F7B200F00F0078
:101F5000B04207D288F80070D8F8000000F00F00F7
:101F6000B04254D128683D4C810712D5400703D5B3
:101F7000206840F4E05020602878000703D52068EE
:101F800040F4604020602068A96820F0F000084319
:101F900020602878C0072DD03049686808390128AA
:101FA00012D0022813D0032811D00968890700290C
:101FB0002DDA216821F0030101432160FFF7ECFED7
:101FC000814641F2883A0EE009688903EFE7096823
:101FD0008901ECE7FFF7E0FEA0EB0901514502D9CA
:101FE0000320BDE8F0872068696800F00C00B0EBC2
:101FF000810FEFD1D8F80010404601F00F01B14237
:1020000007D90770006800F00F00B04201D001202E
:10201000E7E72878400705D52068E96820F4E05014
:10202000084320602878000706D52068296920F435
:10203000604040EAC100206000F058F82168084A7A
:10204000C1F30311515CC8400649086006480068A6
:10205000FFF7CAFE0020C4E7003C024008380240F7
:102060001C7E000818000020100000200F220260D3
:102070000C4A136803F003034360136803F0F00392
:102080008360136803F4E053C36012684FF4E053B5
:1020900003EAD20202610448006800F00F00086001
:1020A0007047000008380240003C024004480549DF
:1020B00000680968044AC1F38221515CC840704736
:1020C00018000020083802402C7E0008044805490A
:1020D00000680968044AC1F34231515CC840704746
:1020E00018000020083802402C7E0008154810B562
:1020F000006810F00C02144813D01449042A0FD0C1
:10210000082A0ED10F4C241F2268236802F03F02D8
:102110005B0207D52068C0F38810A0FB010106E030
:10212000084610BD2168C1F38811A1FB00010023FE
:10213000FEF730F92168C1F30141491C4900B0FBA9
:10214000F1F010BD083802400024F400001BB70075
:102150002DE9F84F04006ED02078DFF84C93C007CB
:10216000A9F104054AD009F104000168C1F3810115
:10217000012908D00068C0F3810002280AD1D9F8EB
:102180000000400206D52868800337D56068002823
:10219000E1D033E06068B0F5803F10D0B0F5A02FFB
:1021A000286810D020F480302860286820F480202F
:1021B00028606068A8B1FFF7EFFD06460DE02868CB
:1021C00040F48030F4E740F480202860F7E700BF57
:1021D000FFF7E2FD801B642873D828688003F7D5D9
:1021E0000CE0FFF7D9FD064605E000BFFFF7D4FD80
:1021F000801B6428F0D828688003F7D42078DFF8A3
:10220000AC8280074FF0000A3ED5A748001D016848
:1022100011F00C0F08D00068C0F3810002280BD128
:10222000D9F80000400207D42868800716D5E06876
:10223000012800D112E033E1E068B8B10120C8F80C
:102240000000FFF7A9FD064605E000BFFFF7A4FD6B
:10225000801B0228C0D828688007F7D52868216924
:1022600020F0F80040EAC10028600DE0C8F800A0A6
:10227000FFF792FD064604E0FFF78EFD801B022863
:102280001FD828688007F7D42078000722D5864F0A
:1022900087486169703771B101210160FFF77CFDEA
:1022A000064604E0FFF778FD801B022809D838684D
:1022B0008007F7D50EE0C0F800A0FFF76DFD0646D9
:1022C00005E082E0FFF768FD801B02287DD83868B2
:1022D0008007F7D42078400768D5DFF8CCB1002715
:1022E0000BF13C0BDBF80000C0000BD4DBF8001056
:1022F00041F08051CBF80010DBF80000012700F01E
:10230000805000906B4E3068C00510D4306840F4A7
:1023100080703060FFF740FD009005E0FFF73CFD66
:102320000099401A022850D83068C005F6D55E4E94
:10233000A0686C3601280FD00528306810D020F036
:1023400001003060306820F004003060A068B8B14F
:10235000FFF722FD00900FE0306840F00100F4E745
:1023600040F004003060F7E7FFF716FD0099411ACE
:1023700041F28830814266D830688007F4D50EE09B
:10238000FFF70AFD009007E0FFF706FD0099411AEC
:1023900041F28830814256D830688007F4D42FB19A
:1023A000DBF8001021F08051CBF80010A069C8B311
:1023B0003D49091D0968C1F3810102294AD002285B
:1023C000504607D0C8F8600000E03CE0FFF7E4FCAE
:1023D00004463BE04746C8F86000FFF7DDFC0646D0
:1023E00005E000BFFFF7D8FC801B02282BD8286827
:1023F0008001F7D4D4E907010843A16A2E4A4908AD
:1024000002EB0141626A41EA8211084394F82C1000
:1024100040EA0161C9F8001001203866FFF7BCFCF2
:10242000044606E03EE000BFFFF7B6FC001B0228B2
:1024300009D828688001F7D534E000BFFFF7ACFC6D
:10244000001B022802D90320BDE8F88F286880010C
:10245000F4D427E00128F7D0D9F80000E26900F4AD
:10246000800191421CD1226A00F03F01914217D1B4
:1024700047F6C071626A0140B1EB821F10D1A26AB7
:102480004FF0FF3300F4403103EB5202B1EB024F47
:1024900006D194F82C1000F07060B0EB016F01D001
:1024A0000120D1E70020CFE7043802400000474276
:1024B000800E4742007000400000FFFF70477047E9
:1024C00010B5040003D094F83D0010B107E00120DE
:1024D00010BD002084F83C00204600F01FF80220C8
:1024E00084F83D00211D206801F092F9012084F854
:1024F000460084F83E0084F83F0084F8400084F8E9
:10250000410084F8420084F8430084F8440084F8D1
:10251000450084F83D00002010BD000008B50068AB
:102520000649884208D10648016841F0400101602F
:10253000006800F04000009008BD00000018004056
:102540004038024090F83D10012901D00120704729
:10255000022180F83D100168CA6842F00102CA6099
:1025600000681149884214D0B0F1804F11D00F4952
:1025700088420ED00E4988420BD00E49884208D0BE
:102580000D49884205D00D49884202D00C49884245
:1025900004D1816801F00701062903D0016841F0E8
:1025A000010101600020704700000140000400406C
:1025B00000080040000C00400004014000400140C1
:1025C0000018004070B5044690F83C000025012832
:1025D00017D0012684F83C60022084F83D00206872
:1025E000826822F0770222F47F42826008685028D5
:1025F00038D00DDC20284FD005DC90B3102811D145
:102600004AE0022070BD302846D040280AD13BE085
:1026100060282FD070280DD0B0F5805F03D0B0F5C2
:10262000005F12D0012584F83D60002084F83C0052
:10263000284670BDCB68D1E90121206801F059F925
:102640002068816841F0770109E0CB68D1E9012178
:10265000206801F04EF92068816841F48041816072
:10266000E1E719E0CA684968206801F017FA5021CB
:10267000206806E0CA684968206801F020FA6021F5
:10268000206801F040F9CEE7CA684968206801F087
:1026900005FA40212068F4E7226801461046F0E779
:1026A000704770B50446006801694FF00005C943E2
:1026B000890715D4C168C943890711D4E91E01618E
:1026C00001202077206880698007204602D0FFF72C
:1026D000E7FF04E000F0C2F8204600F054F9257747
:1026E00020680169C943490717D4C168C94349072C
:1026F00013D46FF004010161022020772068806903
:1027000010F4407F204602D0FFF7CAFF04E000F03B
:10271000A5F8204600F037F9257720680169C943FC
:10272000090716D4C168C943090712D46FF008011C
:102730000161042020772068C0698007204602D00C
:10274000FFF7AEFF04E000F089F8204600F01BF927
:10275000257720680169C943C90617D4C168C943F0
:10276000C90613D46FF0100101610820207720689A
:10277000C06910F4407F204602D0FFF791FF04E0CB
:1027800000F06CF8204600F0FEF82577206801691B
:10279000C943C90708D1C168C943C90704D1891E03
:1027A0000161204600F054F920680169C943090617
:1027B00009D4C168C943090605D46FF080010161DD
:1027C0002046FFF77BFE20680169C943490609D40A
:1027D000C168C943490605D46FF040010161204634
:1027E00000F040F920680169C94389060BD4C1682B
:1027F000C943890607D46FF0200101612046BDE876
:102800007040FFF75CBE70BD10B586B00446142161
:102810006846FDF768FE0E492068884215D10D48CC
:102820000021026842F080020260006800F080002F
:102830000590402000900220CDE901010920CDE95A
:10284000031069460448FFF787F906B010BD000081
:102850000018004030380240001C0240704770B53C
:10286000044690F83C0000260D4601280FD00120B8
:1028700084F83C006AB1042A1DD0082A2FD00C2A03
:102880003FD00126002084F83C00304670BD022075
:1028900070BD206801F040F82068816941F00801AE
:1028A00081612068816921F004018161206881696A
:1028B0002A69114311E0206801F05EF820688169FF
:1028C00041F4006181612068816921F48061816146
:1028D000206881692A6941EA02218161D2E7206882
:1028E00001F080F82068C16941F00801C1612068E9
:1028F000C16921F00401C1612068C1692A691143DD
:1029000011E0206801F0A2F82068C16941F400617B
:10291000C1612068C16921F48061C1612068C16919
:102920002A6941EA0221C161ACE710B5040003D075
:1029300094F83D0010B107E0012010BD002084F89C
:102940003C00204600F01EF8022084F83D00211DC6
:10295000206800F05DFF012084F8460084F83E0006
:1029600084F83F0084F8400084F8410084F8420075
:1029700084F8430084F8440084F8450084F83D005E
:10298000002010BD7047704710B50446022249B1BF
:1029900004290ED0082913D094F84100012816D03C
:1029A000012010BD94F83E000128F9D184F83E20A2
:1029B0000FE094F83F000128F2D184F83F2008E0AE
:1029C00094F840000128EBD184F8402001E084F81D
:1029D00041200122206800F07FFF16492068164A36
:1029E000884201D0904203D1436C43F400434364D6
:1029F0002068884213D0B0F1804F10D00F49884230
:102A00000DD00F4988420AD00E49884207D0904223
:102A100005D00D49884202D00C49884204D1816812
:102A200001F00701062903D0016841F001010160AE
:102A3000002010BD000001400004014000040040DF
:102A400000080040000C0040004001400018004019
:102A500000680349884201D1FFF7A4B9704700001C
:102A6000001C00407047704770470000F8B50168CF
:102A700004460868CA684B6910F00F0F4FF0000554
:102A800059D003F0010602F49077374365D0C107AF
:102A900005D0D10503D5216C41F001012164410726
:102AA00005D5D90703D0216C41F0020121648107CB
:102AB00005D5D90703D0216C41F004012164010739
:102AC00007D502F02001314303D0216C41F0080109
:102AD0002164216C00293AD0800604D5900602D5E5
:102AE000204601F02DF820684069216CC0F3801069
:102AF000090700D460B3204600F0FBFF206840695E
:102B0000400621D52068143050E8001F21F0400114
:102B100040E80012002AF5D1A06BA8B16C4901650C
:102B2000A06BFEF7BBFE002811D0A06B016D01B0B9
:102B3000BDE8F040084783060FD593060DD5204623
:102B4000BDE8F84000F0FCBF2046FFF78DFFF8BD60
:102B50002046FFF789FF2564F8BD266B2023012E50
:102B600079D1C60677D5D60675D50868486800902D
:102B70004869400640D5A16B086840680004000C15
:102B8000EAD0A28D8242E7D9E085C869B0F5807F9E
:102B90002DD020680C3050E8001F21F4807140E8EF
:102BA0000012002AF5D12068143050E8001F21F0EF
:102BB000010140E80012002AF5D12068143050E8E5
:102BC000001F21F0400140E80012002AF5D184F8EE
:102BD0003E30256320680C3050E8001F21F01001C2
:102BE00040E80012002AF5D1A06BFEF70EFEA08D82
:102BF000E18D401A81B229E0A08DE18D401A81B2A9
:102C0000E08D0028A8D00029A6D020680C3050E81C
:102C1000002F22F4907240E80026002EF5D12068A3
:102C2000143050E8002F22F0010240E80026002E68
:102C3000F5D184F83E30256320680C3050E8002F31
:102C400022F0100240E80023002BF5D12046FFF7C8
:102C50000AFFF8BDFFE705062BD5150629D594F820
:102C60003D002128F5D1A068B0F5805F01D1206931
:102C7000B0B1206A411C2162216800784860E08C74
:102C8000401E0004000CE084E3D12068C16821F0FC
:102C90008001C1602068C16841F04001C160D8E78F
:102CA000206A0088C0F308004860206A801C206207
:102CB000E5E74006CDD55006CBD5CA68204622F0C0
:102CC0004002CA6084F83D3000F091F8C1E700008E
:102CD000E33A000870B5040004D094F83D000025E4
:102CE00010B106E0012070BD84F83C50204600F091
:102CF00023F8242084F83D002068C16821F40051A5
:102D0000C160204600F07CFF2068016921F49041F9
:102D100001612068416921F02A0141612068C16890
:102D200041F40051C1602564202084F83D0084F8FE
:102D30003E00002070BD000070B586B0064614212C
:102D40006846FDF7D0FB24493068884242D12348C9
:102D50000025016841F010010160006800F01000DA
:102D600005901E481438016841F0020101600068B6
:102D7000694600F002000590C02000900220CDE9D5
:102D8000010503200390072004901548FEF7E4FE98
:102D9000154C144820604FF00060C4E90105401450
:102DA000C4E9035080106561C4E906504FF4403017
:102DB000C4E908052046FEF753FE08B1FDF709FFF8
:102DC000B463002205212520A663FFF783F82520A0
:102DD000FFF772F806B070BD0010014044380240A1
:102DE0000004024040640240A40B0020704770477A
:102DF000FEE7000010B500224FF4FF710848FEF70F
:102E0000C5FF00224FF400610648FEF7BFFFBDE892
:102E1000104000224FF480410348FEF7B7BF000086
:102E2000001802400010024000140240FDF74CFC64
:102E3000012003F014F9F9E70F4810B50D490160BE
:102E40000321416000214FF410228160C0E9031288
:102E50004FF400124261017641768176C1760177A6
:102E60004177FEF71CFB002803D0BDE81040FDF7BA
:102E7000B0BE10BD00640040C80A00200F4810B565
:102E80000D4901600321416000214FF4102281604F
:102E9000C0E903124FF40012426101764176817657
:102EA000C17601774177FEF7FAFA002803D0BDE832
:102EB0001040FDF78EBE10BD00680040F00A0020F3
:102EC000094808B5016841F48001016000680022EA
:102ED00000F48000009005213A20FEF7FBFFBDE8DA
:102EE00008403A20FEF7E8BF3038024000B587B00E
:102EF0001C2206496846FDF7C4FA0021684603F023
:102F0000BAF80349086007B000BD0000F87D00086A
:102F1000000000202DE9F04786B014216846FDF737
:102F2000E2FA37480024016841F0010101600168BC
:102F300001F001010591016841F0020101600168A1
:102F400001F002010591016841F00801016001688A
:102F500001F008010591016841F0800101600168FC
:102F600001F080010591016841F0400101600168B4
:102F700001F040010591016841F010010160016814
:102F800001F010010591016841F020010160006825
:102F9000DFF8708000F020004FF4FF7505900122EB
:102FA00029464046FEF7F2FE0122DFF85C90D60289
:102FB00031464846FEF7EAFE0122DFF850A09703AB
:102FC00039465046FEF7E2FE00950125CDE9015451
:102FD000694640460394FEF7BFFD0096CDE90154D3
:102FE000694648460394FEF7B7FD0097CDE90154C2
:102FF000694650460394FEF7AFFD06B0BDE8F08782
:103000003038024000180240001002400014024014
:1030100010B58CB000240794089409941C216846CC
:103020000A94FDF760FA19481749C0E900144FF6F1
:10303000FF71C0E9024104618461FFF741FA08B100
:10304000FDF7C7FD4FF48050079007A90F48FFF721
:10305000B9FA08B1FDF7BDFD0C48FFF766FC08B1F1
:10306000FDF7B7FD6020CDE9000402940022694617
:1030700006480494FFF7F3FB08B1FDF7AAFD0348E7
:10308000FFF7C2FB0CB010BD00180040180B002069
:103090000C4810B50A4901600B494160002181606C
:1030A0000C22C160C0E904128161C161FFF712FE08
:1030B000002803D0BDE81040FDF78BBD10BD000017
:1030C00000100140600B0020A0860100FEE7FEE733
:1030D0002DE9F041244F00242DED028B41F288357B
:1030E000DFED228A9FED228A43F6FF7804EB44004D
:1030F00000EB041007EB8000064603F04DF8F0EEFD
:10310000480A3046D6F840C0F0EE601AB0EE681AB1
:103110002B46464642460021B2EE040AE047641CB4
:10312000082CE3DBA846134D002700BF07EB470040
:1031300000EB071005EB8000044603F02DF8F0EEDD
:10314000480A2046246CF0EE601AB0EE601A43463E
:1031500032460021B2EE040AA0477F1C082FE5DBAF
:10316000BDEC028BBDE8F08148490020CDCC4C3D40
:1031700000000000A84B002000F004F8012002F03D
:103180006EFFF9E7F0B5A54D60222DED028B05F538
:1031900098716E7895B006EB460001EB4011A0489F
:1031A000FDF76FF905F1200000EB06139C4C0FCBE7
:1031B00004F1600787E80F0030469FED9A8A05F515
:1031C000F06704F11006162825D2DFE800F0B9F107
:1031D000462A8096EF51F1EFEFEFEF2A46809616E0
:1031E00025ACAF0BB2EE060A85ED030A85ED048A25
:1031F0000120FDF731FB103709E085ED038AB3EEBE
:10320000050A85ED040A0120FDF726FB203797EC1F
:10321000040AFDF755FC8BE04FF4FA7003F0C2FB93
:1032200086E001EE903A01EE102AD4ED190A94EDF1
:10323000180AFDF70DFC502231466846FDF721F9CA
:10324000FFEE003ABFEE003AFFEE002A30E000BF8A
:1032500094E80F0002F062FE6AE001EE903A01EE9F
:10326000102AD4ED190A94ED180AFDF7F1FB86E057
:1032700001EE903A01EE102AD4ED190A94ED180AE5
:10328000FDF7E6FB502231466846FDF7FAF8F7EE07
:10329000003AB7EE003AF7EE002AB7EE002AF0EE59
:1032A000481A9FED611AF6EE000A9FED600ACFE71B
:1032B000BFEE002A02E000BFB7EE002AB0EE480AD7
:1032C000B6EE001AF0EE401AF6EE000AC0E701EE84
:1032D000903A01EE102AD4ED190A94ED180AFDF780
:1032E000B7FB502231466846FDF7CBF8F7EE003ABF
:1032F000BFEE003AF7EE002ADAE701EE903A01EE6F
:10330000102AD4ED190A94ED180AFDF7A1FB5022FA
:1033100031466846FDF7B5F8FFEE003AB7EE003AE1
:10332000FFEE002AC8E7FDF757FC01E0FDF71CFDA2
:1033300015B00320BDEC028BBDE8F04003F032BBBA
:1033400001EE903A01EE102AD4ED190A94ED180A14
:10335000FDF77EFB3648817A022910D1B0F90210C0
:103360002F48B2EE0E0A002904DA80ED010A80ED42
:103370000D0A04E003DD80ED070A80ED130A4FF02B
:10338000500231466846FDF77CF8F0EE480AF7EE49
:10339000003AB7EE003AF7EE002AB7EE002AF6EE52
:1033A000001AB0EE601AB6EE000A51E716E0FFE729
:1033B00001EE903A01EE102AD4ED190A94ED180AA4
:1033C000FDF746FB502231466846FDF75AF8F7EE06
:1033D000003AB7EE003AF7EE002A6DE701EE903AB8
:1033E00001EE102AD4ED190A94ED180AFDF730FB0E
:1033F000502231466846FDF744F8B0EE480AF7EE31
:10340000003AB7EE003AF7EE002AB7EE002AF0EEE7
:10341000401AB0EE401AF0EE400A19E7C40000204E
:10342000B04F0020000000001F85EB3E8FC2753DAD
:10343000040C002030B5144B1C68656945F040054C
:1034400065611B68DC6844F01004DC600F4B1C688D
:10345000256825F0010525601C682568ED07F7D172
:103460001D680B4CAC601C68E0601868016118684E
:1034700042601868016841F48021016018680168A1
:1034800041F00101016030BD600B0020A40B002061
:103490000410014030B5404A4049002455780123CA
:1034A000152D2FD094701446DFED3D0A94ED050ADA
:1034B0009FED3C1AB1EE400A70EE600A9FED3A0AA9
:1034C00060EE801AD4ED060A71EE600A20EE801AD2
:1034D000B0B39FED330AD4ED050A9FED322AD4ED47
:1034E000062A70EE800A9FED300A32EEC22A0128C9
:1034F00060EE800A22EE000A3DD0022840D0032868
:1035000043D046E0244D93709FED280AD5ED050A7F
:1035100060EE801AD5ED060A20EE801A88B19FED84
:10352000220AD5ED050A95ED062A012860EE800AEB
:1035300022EE000A0AD002280DD0032810D013E092
:1035400014E0C1ED221A81ED0F1A0DE0C1ED350A2C
:1035500081ED480A08E0C1ED6E1A81ED5B1A03E0C7
:10356000C1ED810A81ED940A947012E0C1ED221A36
:1035700081ED0F1A0DE0C1ED350A81ED480A08E032
:10358000C1ED6E1A81ED5B1A03E0C1ED810A81ED98
:10359000940A137030BD0000C4000020A84B002026
:1035A000000034420000D242832DD843832DD8C37B
:1035B0000FB42DED020B70B54C4C2DED088B94ED36
:1035C000021ADDED131A119E30EE412A94ED011A14
:1035D0000E9DDDED109A01EE821A9DED129ADDED41
:1035E0000F8A84ED011A84ED020A31EE200A10EEF2
:1035F000100A04F00DFB41EC100B9FED3D1B00F099
:10360000F3FF51EC100B03F05BFC08EE100A9FED8A
:103610003ABAB6EE000AB4EEC98A84ED078AF1EE32
:1036200010FA2BD8C8EE090A284660EEA80A48EE20
:10363000C00AC4ED030A04F0EBFA68EE0B0A41EC91
:103640001A0B80EE890A10EE100A04F0E1FA41EC40
:10365000100B01F075FEB0EE408AB1EE690AF0EE93
:10366000608A10EE100A04F0D3FA53EC182B03F022
:1036700031FF41EC100B53EC1A2B2BE0B7EE001A84
:1036800078EE490A31EE491A28EE800A284680EE83
:10369000818A08EE680A84ED030A04F0B9FA28EE7C
:1036A0000B0A41EC190B10EE100A04F0B1FA41ECD0
:1036B000100B01F045FEB0EE408AF0EE608A304615
:1036C00004F0A6FA53EC182B03F004FF53EC192B6B
:1036D00041EC100B51EC100B03F024FC03F0F0FB59
:1036E0002061BDEC088B70BC5DF81CFBC4000020A1
:1036F000000000000000F03FDB0F4940012002F015
:10370000AEFCFBE70348044980ED000A1320087073
:103710007047000084000020C500002003480449D1
:1037200080ED000A1420087070470000840000201B
:10373000C500002010B5502080F31188BFF34F8FD3
:10374000BFF36F8F03F0E8FA18B104494FF08050CF
:103750000860002080F3118810BD000004ED00E037
:1037600030B593B030216846FCF7BDFE14210CA89B
:10377000FCF7B9FE1D480025016841F08051016049
:10378000006800F0805011901948016841F44041F0
:1037900001600068022400F4404011900120009074
:1037A000000401908001CDE9064006200890A82081
:1037B000CDE9090404200B906846FEF7C9FC08B166
:1037C00072B6FEE70CA90F2081E831004FF4A0503B
:1037D0000F904FF48050109005210CA8FEF7ACFB21
:1037E000002801D072B6FEE713B030BD4038024069
:1037F000007000400248016841F4700101607047A8
:1038000088ED00E00148FEF74CBF0000100C0020DE
:10381000F0B50268254C264D264E274F274B4FF01A
:10382000804CA04209D0604507D0A84205D0B042E4
:1038300003D0B84201D0984204D122F0700E4A68F9
:1038400042EA0E02A0421BD0604519D0A84217D010
:10385000B04215D0B84213D0984211D0184DA842AA
:103860000ED0184DA8420BD0174DA84208D0174DC6
:10387000A84205D0164DA84202D0164DA84203D149
:1038800022F44075CA682A434D6922F080022A4317
:1038900002608A68C2620A688262A04201D09842CD
:1038A00001D10969016301214161F0BD00000140BE
:1038B0000004004000080040000C004000040140EB
:1038C0000040014000440140004801400018004011
:1038D000001C00400020004010B501F01F03012132
:1038E000046A99408C430462016A9A401143016260
:1038F00010BD10B5846842EA032224F47F440A43D1
:103900002243826010BD826822F070020A4342F0B6
:103910000701816070470000F0B5026A22F00102E1
:103920000262036A42688469124E24F073050C68CF
:103930002C4323F002058B682B430D4DA84201D088
:10394000B04205D123F00807CB683B4323F00403C2
:10395000A84201D0B04205D14D6922F4407215430E
:103960008A692A4342608461496841630362F0BD09
:103970000000014000040140F0B5026A22F010028C
:103980000262026A436884690D6824F4E64444EAEA
:1039900005248D6822F0200242EA05120F4D104ED8
:1039A000A84201D0B04206D1CF6822F0800242EA9C
:1039B000071222F04002A84201D0B04207D14D695F
:1039C00023F4406343EA85038D6943EA850343603A
:1039D0008461496881630262F0BD0000000001401B
:1039E00000040140F0B5026A22F480720262026AA9
:1039F0004368C46922F4007224F073050C68124E07
:103A00002C438D6842EA05220E4DA84201D0B042F7
:103A100006D1CF6822F4006242EA072222F48062D3
:103A2000A84201D0B04207D14D6923F4405343EA84
:103A300005138D6943EA05134360C4614968C16396
:103A40000262F0BD000001400004014030B5026A8E
:103A500022F480520262046A4268C3690D6823F44A
:103A6000E64343EA05238D6824F4005444EA053410
:103A7000084DA84202D0084DA84204D14D6922F455
:103A8000804242EA85124260C3614968016404626F
:103A900030BD0000000001400004014010B5036A81
:103AA000046A24F001040462846924F0F00444EA06
:103AB000021423F00A020A438461026210BD10B5A9
:103AC000036A23F0100303628369046A23F47043DA
:103AD00043EA023224F0A00343EA01118261016249
:103AE00010BD10B5806B0021C185C184FEF7BCFFFD
:103AF00010BD01680C3151E8002F22F4907241E8AA
:103B00000023002BF5D10168143151E8002F22F079
:103B1000010241E80023002BF5D1016B012909D1F5
:103B200001680C3151E8002F22F0100241E8002317
:103B3000002BF5D1202180F83E1000210163704751
:103B400008B590F83E10222901D0022008BD8268F5
:103B50004FF480539A4201D1016921B1816A9A429E
:103B60001BD04AB10AE00268816A5268C2F30802B7
:103B70000A80816A891C08E0026972B10268526891
:103B800002F07F020A70816A491C8162C18D491E60
:103B90000904090CC18503D019E002685268F1E7F5
:103BA0000168CA6822F02002CA600168CA6822F46B
:103BB0008072CA6001684A6922F001024A612021CC
:103BC00080F83E10016B012903D0FFF70FF90020A8
:103BD00008BD0021016301680C3151E8002F22F07B
:103BE000100241E80023002BF5D101680A68D206D3
:103BF00002D50A6849680091818DFEF734FFE6E737
:103C000070B5044600680169E26821F4405111432F
:103C100001612169A068E2690843616911430843B1
:103C20002168CA6849F20C639A430243CA6020685B
:103C30004169A26921F44071114341613149206811
:103C4000884202D03049884202D1FEF73FFA01E0B3
:103C5000FEF72CFAE2690023192164253226B2F519
:103C6000004F626828D0A0FB0101930F9200FCF77F
:103C700091FB0146B0FBF5F06FF01802504301EBE9
:103C8000800006EB0010B0FBF5F000F0F002B1FB95
:103C9000F5F002EB0012B1FBF5F06FF0180358439A
:103CA00001EB800006EB0010B0FBF5F000F00F0018
:103CB00021681044886070BDA0FB010192185B412F
:103CC000FCF768FB0146B0FBF5F00201B1FBF5F033
:103CD0006FF01803584301EB800006EBC000B0FB07
:103CE000F5F000F0F80002EB4002B1FBF5F05843AC
:103CF00001EB800006EBC000B0FBF5F000F0070020
:103D0000D6E70000001001400014014038B53748E4
:103D100000680168890603D501684068009040E0AA
:103D200033490968C9063CD501684068314A0090AA
:103D3000106801684FF024030C032F49046824F035
:103D40000104046015D414686068C0F1240080B2D6
:103D50000880636011680B6843F400230B601168EE
:103D60000A6842F001020A6012281AD12349244845
:103D700015E010684468C4F12404A4B20C804360C8
:103D80002048016821F4002101601068016841F0B9
:103D900001010160122C04D119481849243002F0A5
:103DA0005DFC1248FEF762FE1448817A022918D0A1
:103DB000032915D1C27A1448012A08D01349022ACE
:103DC0000CD0032A0CD101220260112007E0006808
:103DD000012805D1BDE8384001F0EABF1520087080
:103DE00038BDBDE8384002F05BB80000600B002031
:103DF00000100140A40B002008000020040C00204B
:103E0000684F002040640240B4000020C50000203C
:103E1000FEE703B401984100009850EAC12018BFA2
:103E200004204A0D18BF40F0010040F2FF72B2EBCF
:103E3000515F08BF40F00200012808BF052002B012
:103E400070470907090E002804DB00F1E02080F824
:103E50000014704700F00F0000F1E02080F8141DFE
:103E6000704700000000000010B5B94A2DED020BAC
:103E70002DED0C8B82B00F9921F000409FEDB6CB59
:103E800090422CDBA0F140530E9AA3F17F631A43BA
:103E90000FD0B349884202DC16D10E98A0B19DED37
:103EA0000E0B02B0BDEC0C8B02B0BDE8104001F06F
:103EB000EBBE0029C1BF9FEDAC0B02B0BDEC0C8B7B
:103EC00002B0C8BF10BD16E00120FCF73BFB02B0FA
:103ED000BDEC0C8B02B0BDE8104001F0E9BEA44A75
:103EE0009FEDA59B9FEDA6AB90425EDAA6499FEDA4
:103EF000A8CB814208DBB0EE4C0AF0EE6C0A02B0AF
:103F0000BDEC0C8B02B010BD9DED0E0B53EC102BD5
:103F100051EC100B03F0DEFA41EC180B9E48062121
:103F2000B0EE480AF0EE680A784401F081FD53ECE7
:103F3000182B51EC100B03F0CDFA41EC1B0B9748FA
:103F4000B0EE480AF0EE680A0421784401F070FDF2
:103F500053EC182B51EC100B03F0BCFA53EC192B5B
:103F600002F0E0FF41EC100B51EC1B0B53EC102B5B
:103F700003F094F841EC100B53EC102B9DED0E0B5D
:103F800051EC100B03F0A6FA53EC1A2B03F07EFC55
:103F90009DED0E1B53EC112B03F078FC53EC1C2B06
:103FA00003F074FC41EC100BA9E79FED7D8B9FEDB6
:103FB0007EBB9DED0E0B002953EC192B51EC100B21
:103FC00052DA02F0AFFF53EC182B03F083FA41EC06
:103FD000180B77480621B0EE480AF0EE680A7844DC
:103FE00001F026FD53EC182B51EC100B03F072FA84
:103FF00041EC1D0B6F48B0EE480AF0EE680A042150
:10400000784401F015FD53EC182B51EC100B03F024
:1040100061FA53EC192B02F085FF41EC190B51ECBE
:10402000180B02F074FB41EC180B53EC192B51ECFC
:104030001D0B03F033F853EC182B03F04BFA53EC41
:104040001A2B03F0FBFC41EC100B51EC180B53EC5A
:10405000102B02F067FF53EC1B2B03F03BFA53ECE1
:104060001C2B03F013FC6DE003F010FC53EC182B39
:1040700003F030FA41EC180B02F049FB41EC1A0B4B
:1040800000208DED00AB00909DED000B51EC1A0B64
:1040900053EC102B02F046FF9DED000B41EC1C0B86
:1040A00053EC102B51EC100B03F014FA53EC182BBB
:1040B00003F0ECFB53EC1C2B02F0F0FF41EC1C0B6B
:1040C0003D48B0EE480AF0EE680A0621784401F057
:1040D000AFFC53EC182B51EC100B03F0FBF941EC47
:1040E0001D0B3648B0EE480AF0EE680A0421784409
:1040F00001F09EFC53EC182B51EC100B03F0EAF985
:1041000053EC192B02F00EFF41EC100B51EC1D0B80
:1041100053EC102B02F0C2FF53EC1A2B03F0DAF928
:1041200053EC1C2B02F0FEFE41EC100B53EC102B59
:104130009DED000B51EC100B02F0F4FE53EC1B2B29
:1041400003F0C8F941EC100BD9E6000000000000B4
:104150000000F03F00000000182D4454FB210940EE
:104160000000F07F000000000000000000000000E0
:104170000000E03F00000000000000000000F03FF1
:10418000075C143326A6913C0000603C0000000050
:10419000182D4454FB21F93F1C4200002A42000024
:1041A000000000000000E03F0000000000000040B0
:1041B0006641000074410000784000008640000025
:1041C00070B5C1482DED020B2DED0E8B82B0119D07
:1041D00025F000449FEDBEDB9FEDBFEB84423EDB4C
:1041E000A4F140511098A1F17F6108430FD0BC4861
:1041F000844202DC28D1109830B39DED100B02B040
:10420000BDEC0E8B02B0BDE8704001F03DBD9DEDF0
:10421000100B53EC1D2B51EC100B03F05BF99DEDD3
:10422000100B41EC180B53EC1E2B51EC100B03F050
:1042300051F953EC182B02F075FE41EC100B02B053
:10424000BDEC0E8B02B070BD0120FCF77BF902B013
:10425000BDEC0E8B02B0BDE8704001F029BDA14855
:104260009FEDA18B844256DA9DED100BB4F1795F7E
:104270000ADA51EC100BFFF7CCFD042808BF01F05F
:1042800037FD9DED100BDAE753EC102B51EC100BC2
:1042900003F020F941EC190B95480621B0EE490ACC
:1042A000F0EE690A784401F0C3FB53EC192B51EC92
:1042B000100B03F00FF941EC1A0B8E48B0EE490ACF
:1042C000F0EE690A0421784401F0B2FB53EC192B9B
:1042D00051EC100B03F0FEF853EC182B02F022FE09
:1042E00041EC100B51EC1A0B53EC102B02F0D6FEE4
:1042F000CDE900019DED000B53EC102B9DED100B53
:1043000051EC100B03F0E6F89DED101B53EC112B54
:1043100002F008FED2E09DED100B51EC100B01F005
:10432000F1FD53EC182B03F0B1FA9FED730BCDE9BF
:10433000000153EC102B9DED000B51EC100B03F022
:10434000C9F841EC190B6E480621B0EE490AF0EEAF
:10435000690A784401F06CFB53EC192B51EC100BFB
:1043600003F0B8F841EC1B0B6648B0EE490AF0EEDA
:10437000690A0421784401F05BFB53EC192B51ECE2
:10438000100B03F0A7F853EC182B02F0CBFD41EC17
:104390001C0B51EC190B02F0BAF941EC180B5A48FE
:1043A0009FED5BABA04222DC53EC1C2B51EC1B0BB2
:1043B00002F074FECDE900019DED000B51EC180BED
:1043C00053EC102B03F086F853EC182B02F0AAFDE7
:1043D00053EC1A2B03F07EF853EC1D2B03F02EFB4D
:1043E00053EC1E2B03F052FA41EC100B5FE08DED05
:1043F000008B002000909DED000B51EC180B53EC4E
:10440000102B02F08FFD9DED000B41EC1E0B53ECC9
:10441000102B51EC100B03F05DF853EC192B03F04B
:1044200035FA53EC1E2B02F039FE41EC190B53EC1C
:104430001C2B51EC1B0B02F031FE41EC1B0B53EC1F
:104440001A2B51EC190B03F045F853EC1D2B03F01C
:104450001DFA41EC190B53EC1A2B51EC180B03F01D
:1044600039F853EC1B2B03F035F853EC192B03F000
:10447000E5FA9DED000B41EC180B53EC1A2B51ECB7
:10448000100B03F027F89FED249B53EC192B03F03E
:10449000FDF941EC100B51EC180B53EC102B03F011
:1044A000CDFA53EC192B03F0F1F941EC100B002D70
:1044B0003FF7C5AE51EC100B02F0F6FC41EC100BCF
:1044C000BDE60000000000000000F03F000000001A
:1044D000075C143326A6913C182D4454FB21F93F68
:1044E0000000F07F0000E03F000000000000F03F0F
:1044F000F03E0000FE3E0000000000000000E03F33
:10450000423E0000503E00003333EF3F0000000009
:104510000000000000000040182D4454FB21E93F3A
:1045200010B52F499FED2C1B2DED020B84B0059883
:1045300020F000408842D8BF9DED040B2DDD2949B5
:10454000884209D1049840B94FF00100FBF7FAFF07
:1045500001F0AEFB06B010BD05DB9DED040B01F0D4
:1045600093FB06B010BD68469DED040B00F08CFF78
:1045700010F0030004BF9DED021B9DED000B0CD05D
:1045800001280ED09DED021B9DED000B022817D0D7
:10459000012001F0C9FA06B010BD01F091F906B092
:1045A00010BD9DED021B9DED000B012001F0BCFA3A
:1045B00051EC100B02F078FC06B041EC100B10BD72
:1045C00001F07EF951EC100B02F06EFC06B041ECEC
:1045D000100B10BD000000000000000000000000F3
:1045E000FB21E93F0000F07F10B52DED040B86B0F4
:1045F0009DED060B10EE100A10EE901A8DED000BDB
:10460000002818BF0120084320F00040C0F17F605F
:1046100000F1E040C00F21D19DED080B10EE101A03
:1046200010EE900A8DED000B002918BF0121084300
:1046300020F00040C0F17F6000F1E040C00F0DD1DC
:1046400029490798B1EB400F04BF0698002842D0D3
:104650000998400004BF089800283CD09DED080B45
:1046600053EC102B9DED060B51EC100B03F02AF8C8
:10467000CDE902019DED020B40F2FF7110EE900AB0
:104680008DED000B31EA105021D00798039900F00E
:10469000004001F00041884219D09DED080B8DEDDE
:1046A000040B9DED020B8DED000B10EE900A0599A9
:1046B00061F31E0005909DED041B9DED020B51EC76
:1046C000110B53EC102B03F0E1F8CDE902019DED45
:1046D000020B0AB010BD0120FBF734FF0AB0BDE8A1
:1046E000104001F0E5BA00000000E0FF000000000B
:1046F0002DE9F04D2DED040B2DED0E8B96B0DDE97F
:104700002550279CDDF890A025F0004624F00048B5
:10471000BAF1000F14BF0121002101EB4502FC4951
:1047200053184A1093422AD3002814BF01230023B0
:1047300003EB44030B44F7498B4220D358EA0001B2
:104740009FEDF59B76D0DFF8D8B35D4503D1BAF184
:10475000000F05D188E0BAF1000F08BF002100D09A
:10476000012101EB450111F5001F08D8002814BFF5
:104770000121002101EB440111F5001F0BD99DED32
:10478000261B9DED240B16B0BDEC0E8B04B0BDE8CE
:10479000F04D01F083BA0027002DBCBFE1498845E8
:1047A00021DAE1498845A8BF02271CDAC3451ADC93
:1047B000DE4901EB2851142908DDC1F1340220FA49
:1047C00002F101FA02F282420DD108E058B9C1F1BA
:1047D000140228FA02F101FA02F2424503D101F073
:1047E0000101C1F1020756EA0A0124D1002C22DAA4
:1047F000002D18BF022F01D0012F0AD00220FBF795
:10480000A1FE16B0BDEC0E8B04B0BDE8F04D01F07A
:1048100023BA0220FBF796FE01F01EFA51EC100BB2
:1048200002F042FB41EC100B16B0BDEC0E8B04B055
:10483000BDE8F08D18E09FEDBEAB9FEDBF8B00286B
:1048400071D1B848804522D105F1804010F5801023
:1048500008BFBAF1000F07D0B3450ADC002CA8BF8F
:104860009DED260BE0DA0DE0B0EE490AF0EE690AA4
:10487000DAE7002C06DA9DED260B51EC100B02F066
:1048800013FB6FE0AE48784490ED000BCCE7D845C1
:104890004DD1002C48DA2EB186423AD1BAF1000F40
:1048A00042D126E0BAF1000F13D00220FBF74AFEF6
:1048B00001F00EFA8DED020B9DED240B8DED000B3A
:1048C00010EE900A039961F31E0003909DED020B18
:1048D000AAE78DED02AB9DED240B1AEE901A10EEB7
:1048E000900A8DED000B61F31E0003909DED020B0D
:1048F0009AE78DED028B9DED240B18EE901A10EEC9
:10490000900A8DED000B61F31E0003909DED020BEC
:104910008AE709DA9DED240B51EC190B53EC102BAF
:1049200002F0BCFB1EE020E09DED240B7CE78642FC
:104930001BDAB4F1804F0DD0A4F10050B0F1FF505C
:1049400013D1002D11DB9DED240B51EC100B01F068
:10495000DEFE07E09DED240B53EC102B51EC100B09
:1049600000F0C2BC41EC100B5EE79DED240B51EC56
:10497000100B01F0C7FABAF1000FCDE90E0142D1D8
:104980009FED710B46B3A6F1E040B0F17F600CD013
:104990005E4538D1002D00DAA7B3022F0CBF0120ED
:1049A0004FF0FF3002F02FFDDCE7002D01DD002C81
:1049B0000DDA002D01DD002C1FDB002D16DA002C96
:1049C00014DB012F08BF9FED620B3FF42DAFB0EE5B
:1049D0004A0AF0EE6A0A27E7022F18BF002D0CD012
:1049E000012F0AD1002DFFF61FAF06E0002DB8BF42
:1049F000002C08DA012F3FF417AFB0EE480AF0EEB2
:104A0000680A11E71BE0012000EBE57050EA07019E
:104A100015D0791EB0EE498AF0EE698A084308BFC6
:104A20009FED4D8B4E480025804570DD4D494E4829
:104A3000884514DDB0420DDB002C19DB2FE001208E
:104A4000FBF780FD16B0BDEC0E8B04B0BDE8F04D59
:104A500001F02EB9B34502DC002C09DC1FE08642D0
:104A600002DA002C1BDA03E05E452BDD002C16DD9C
:104A70000220FBF767FD01F02BF98DED020B53ECE3
:104A80001A2B51EC180B02F025FDCDE9000103991A
:104A9000019861F31E0003909DED020BC4E6022015
:104AA000FBF750FD01F024F910EE901A18EE900A71
:104AB0008DED020B8DED008B61F31E0003909DEDDB
:104AC000020BB1E69DED0E0B53EC192B51EC100BC4
:104AD00002F0B4FF9FED260BCDE9080153EC102B3B
:104AE0009DED080B51EC100B02F0F4FC9FED221B26
:104AF00053EC112B02F0CAFE9DED081B53EC112B59
:104B000002F0E8FC9FED1E1B53EC112B3CE08CE007
:104B1000FFFF1F00FFFF0F00000000000000F03F3C
:104B20000000F03F0000F07F0000404301FCFFFF69
:104B3000000000000000F07F000000000000000006
:104B4000163A000000000000000000000000008095
:104B5000000000000000F0FF000000000000F0BFB7
:104B60000000E0410000F043FFFFEF3F00000000C5
:104B7000000000000000D03F555555555555D53F14
:104B8000000000000000E03F02F080FE9DED080BF9
:104B900041EC1A0B53EC102B51EC100B02F09AFC69
:104BA00053EC1A2B02F096FC41EC1A0B9FEDFE0B16
:104BB00053EC102B9DED080B51EC100B02F08AFC0E
:104BC00041EC1B0B9FEDFA0B51EC1A0B53EC102B25
:104BD00002F080FC41EC1A0B9FEDF70B53EC102B0D
:104BE0009DED080B51EC100B02F074FC53EC1A2BEA
:104BF00002F024FF41EC1A0B51EC1B0B53EC1A2B67
:104C000002F090F90690CDE906519DED060B53ECAC
:104C10001B2B51EC100B02F011FF53EC1A2B02F07E
:104C200035FE41EC100B00F0A1B90020B6F5801F55
:104C30000EDA9FEDE30B53EC102B9DED0E0B51ECB8
:104C4000100B02F047FCCDE90E016FF034000E4668
:104C500000EB2650A0F2FF37C6F31300DA4940F00C
:104C60007F6646F040568842D8BF002408DDD74909
:104C70008142C8BF012403DC0024A6F580167F1CF6
:104C8000D348784400EBC4000F9690ED00CB9DED27
:104C90000E0B53EC1C2B51EC100B02F0CFFE9DEDD4
:104CA0000E0B41EC1B0B53EC1C2B51EC100B02F0C8
:104CB00039F941EC100B51EC190B53EC102B02F0AD
:104CC000EDF941EC1D0B51EC1B0B53EC1D2B02F0CD
:104CD00001FC41EC1A0BBF488DED10AB78441095E8
:104CE00090ED000B4FF0005040EA660000EB84406E
:104CF0008DED080B00F5002009909DED080B53EC9D
:104D00001C2B51EC100B02F099FE9DED0E1B53EC89
:104D1000112B02F0BBFD41EC100B53EC102B9DED61
:104D2000100B51EC100B02F0D5FB9DED080B41EC84
:104D30001C0B53EC102B9DED100B51EC100B02F0E3
:104D4000C9FB53EC1B2B02F0A1FD53EC1C2B02F012
:104D500075FE53EC1D2B02F0BDFB41EC1C0B53EC1C
:104D60001A2B51EC1A0B02F0B5FB41EC1B0B9A48C5
:104D70000621B0EE4B0AF0EE6B0A784400F058FEC4
:104D8000B0EE401AF0EE601AB0EE41DAF0EE61DA01
:104D900053EC1B2B51EC1B0B02F09CFB53EC1D2B1B
:104DA00002F098FB9DED100B41EC1B0B53EC1A2B02
:104DB00051EC100B02F0B6F853EC1C2B02F08AFBFE
:104DC00053EC1B2B02F0AEF89DED100B41EC1B0BCE
:104DD00053EC102B51EC100B02F07CFB41EC1D0B43
:104DE0009FED7FEB53EC1E2B02F09CF853EC1B2B3A
:104DF00002F098F80890CDE908519DED080B53ECAE
:104E00001E2B51EC100B02F019FE53EC1D2B02F07F
:104E100015FE53EC1B2B02F039FD9DED080B41EC08
:104E20001D0B53EC102B9DED100B51EC100B02F0F1
:104E300051FB41EC1B0B53EC1A2B51EC1D0B02F0F8
:104E400049FB9DED080B41EC1A0B53EC102B51EC78
:104E50001C0B02F03FFB53EC1A2B02F063F841EC01
:104E60001A0B51EC1B0B53EC1A2B02F05BF80C9055
:104E7000CDE90C519DED0C0B53EC1B2B51EC100BA1
:104E800002F0DCFD53EC1A2B02F000FD41EC1B0B91
:104E90009FED550B53EC102B9DED0C0B51EC100BB3
:104EA00002F018FB41EC1A0B9FED510B51EC1B0B60
:104EB00053EC102B02F00EFB41EC1B0B9FED4E0B45
:104EC00053EC102B9DED0C0B51EC100B02F002FB80
:104ED00053EC1B2B02F026F841EC100B48487844A9
:104EE00000EBC40090ED001B51EC100B53EC112BA8
:104EF00002F018F841EC1B0B384602F084FACDE9B9
:104F0000080153EC1B2B51EC1A0B02F00BF841EC8F
:104F1000100B3C48784400EBC40090ED00CB51EC02
:104F2000100B53EC1C2B01F0FDFF9DED081B53EC07
:104F3000112B01F0F7FF0690CDE906519DED080B0E
:104F400053EC102B9DED060B51EC100B02F076FD8F
:104F500053EC1C2B02F072FD53EC1A2B02F06EFD89
:104F600053EC1B2B02F092FC41EC100B9DED261B29
:104F700053EC102B8DED001B00959DED260B51EC95
:104F8000100B02F0A7FA9DED000B41EC1A0B53EC4D
:104F9000102B9DED260B51EC100B02F04FFD9DEDFB
:104FA000061B53EC112B2FE0000000604715F73F64
:104FB000FE822B654715F73F44DF5DF80BAE543E8C
:104FC00000000000000040438E9803007AB60B00FA
:104FD00062350000C03500009A3400000000000077
:104FE0000000000000000840000000E009C7EE3F9C
:104FF000FD033ADC09C7EE3FF5015B14E02F3EBE2E
:1050000026330000E032000002F064FA53EC1A2B61
:1050100001F088FF9DED060B41EC1A0B53EC102BB1
:105020009DED000B51EC100B02F054FACDE90C0190
:105030009DED0C0B51EC1A0B53EC102B01F072FF91
:10504000CDE902010C46AA498C422FDB611A0843C4
:1050500018D19DED0C0B53EC102B9DED020B51EC78
:10506000100B02F0EBFC41EC1B0B9FEDA30B51EC82
:105070001A0B53EC102B01F055FF53EC1B2B02F0D5
:10508000CFFB2DD20220FBF75DFA00F021FE10EEDF
:10509000901A18EE900A8DED020B8DED008B61F3E6
:1050A0001E0003909DED020BFFF7BEBB944A24F057
:1050B0000041914214D39349214408437FF4EFAC5B
:1050C0009DED0C0B53EC102B9DED020B51EC100BD6
:1050D00002F0B4FC53EC1A2B02F0A2FB7FF6DFAC1B
:1050E00024F000408849894A002601EB2051824281
:1050F0002BDA481C4FF4801121FA00F02044844A36
:10510000C0F30A517A44A1F2FF3192ED000B814ABB
:105110008DED080BCA4020EA0202C0F3130040F4F0
:105120008010C1F1140120FA01F60992002CB8BFD9
:1051300076429DED080B53EC102B9DED0C0B51ECC2
:10514000100B02F07BFCCDE90C019DED0C0B51EC3A
:105150001A0B53EC102B01F0E5FE9FED6F0B08903E
:10516000CDE9085153EC102B9DED080B51EC100BC1
:1051700002F0B0F941EC1B0B9FED690B53EC102BC7
:105180009DED080B51EC100B02F0A4F99DED0C0BFA
:1051900041EC1C0B53EC102B9DED080B51EC100B4C
:1051A00002F04CFC53EC1A2B02F070FB9FED5E1BDF
:1051B00053EC112B02F08EF953EC1C2B01F0B2FED4
:1051C00041EC1A0B51EC1B0B53EC1A2B01F0AAFE0D
:1051D000CDE902019DED020B53EC1B2B51EC100BA2
:1051E00002F02CFC53EC1A2B02F050FB9DED020B4D
:1051F00041EC1A0B53EC102B51EC100B02F06AF936
:10520000CDE908014A489DED080B0521784400F0DE
:105210000FFC9DED081B51EC100B53EC112B02F011
:1052200059F99DED021B53EC112B02F02FFBCDE938
:1052300006019DED020B53EC1A2B51EC100B02F002
:1052400049F953EC1A2B01F06DFE9FED3B0B41EC3D
:105250001A0B53EC102B9DED060B51EC100B02F0CA
:10526000EDFB9DED060B41EC1B0B53EC102B9DED64
:10527000020B51EC100B02F02DF953EC1B2B01F03B
:105280000DFF53EC1A2B02F0D9FB9DED021B53ECE2
:10529000112B02F0D3FB53EC192B02F0F7FACDE9F6
:1052A000020101EB065001150029C8BF039015DC6F
:1052B0009DED020B324651EC100B02F056FDFEF74D
:1052C000A8FD042808BF00F013FD32469DED020B37
:1052D00051EC100B02F049FDCDE902019DED020BEE
:1052E00051EC180B53EC102B02F0F4F8FFF73ABB1B
:1052F0000000904000000000FE822B654715973C9F
:1053000000CC904000346F3F01FCFFFF0000E03F05
:1053100098310000FFFF0F0000000000432EE63F21
:10532000396CA80C615C20BEEF39FAFE422EE63FD4
:1053300038300000000000000000000000000040C5
:1053400010B52F499FED2C1B2DED020B84B0059855
:1053500020F000408842DCBF00209DED040B32DDD0
:105360002849884209D1049840B94FF00100FBF761
:10537000E9F800F09DFC06B010BD05DB9DED040BC7
:1053800000F082FC06B010BD68469DED040B00F0F5
:105390007BF810F0030011D0012818D09DED021BFE
:1053A0009DED000B02281AD000F08AFA51EC100B88
:1053B00001F07AFD06B041EC100B10BD9DED021B13
:1053C0009DED000B012000F0AFFB06B010BD9DED80
:1053D000021B9DED000B00F073FA06B010BD01201A
:1053E00000F0A2FB51EC100B01F05EFD06B041ECA9
:1053F000100B10BD000000000000000000000000C5
:10540000FB21E93F0000F07F00B52DED048BB0EEED
:10541000409AF0EE609A83B051EC190B02F042FA18
:1054200041EC180B18EE100A18EE901A8DED008B57
:10543000002818BF0120084320F00040C0F17F6021
:1054400000F1E040C00F14D019EE101A19EE900AC6
:105450008DED009B002918BF0121084320F000407A
:10546000C0F17F6000F1E040C00F04BF0120FBF7F6
:1054700069F8B0EE480A03B0F0EE680ABDEC048BA0
:1054800000BD0000000000002DE9F14F04462DEDA5
:10549000020B2DED088B8AB09FEDE70B80ED020B20
:1054A000139EE74826F0004585420ADC9DED120B6D
:1054B000002084ED000B0AB0BDEC088B03B0BDE802
:1054C000F08FE0489FEDE0AB9FEDE1BBA84247DDE8
:1054D000E14F9FEDE39B9FEDE48B9DED120B53ECB1
:1054E0001A2B51EC100B002E1CDD02F0A7FA41EC38
:1054F000100BBD4208D053EC1B2B51EC100B02F0EB
:105500009DFAC4E900010BE053EC192B51EC100B90
:1055100002F094FA53EC182B02F090FAC4E900015F
:105520000120C8E701F0FEFC41EC100BBD4208D0A1
:1055300053EC1B2B51EC100B01F0F4FCC4E90001FF
:105540000BE053EC192B51EC100B01F0EBFC53EC7E
:10555000182B01F0E7FCC4E900014FF0FF30AAE787
:10556000C348A84279DB9DED120B51EC100B00F003
:10557000C9FC41EC180B9FEDC00B53EC102B01F054
:10558000A9FF9FEDBF1B53EC112B01F0CBFC01F0E9
:10559000DDFE074601F037FF41EC190B53EC1A2BE7
:1055A00001F098FF53EC182B02F070F941EC180B46
:1055B00053EC1B2B51EC190B01F08CFFDFF8C8A248
:1055C00041EC100B4FEA15580125FA4453EC102B0F
:1055D00051EC180B02F032FA032DC4E900013DD062
:1055E000C1F30A5005EB4511A8EB000011398142C7
:1055F00034DA0AEB051BB0EE48AA9BED000BF0EE87
:1056000068AA53EC102B51EC190B01F063FF41EC2D
:105610001B0B51EC1A0B53EC1B2B02F00FFA41EC55
:10562000180B51EC1A0B53EC182B02F007FA53EC41
:105630001B2B02F003FA9BED020B41EC1A0B53EC0F
:10564000102B51EC190B01F045FF53EC1A2B02F013
:10565000F5F941EC100B6D1CB8E70EE0002EA8BF69
:105660003846BFF628AF94ED000B51EC100B01F05B
:105670001BFCC4E9000178421DE7C6F3130040F4A7
:10568000801EC6F30A50A0F2F530471100F01F0546
:10569000C5F12000DDF848B0089000200690079082
:1056A0000520EC467949002D07EB0002794408BF3C
:1056B00051F8221009D051F8223001EB8201AB40A1
:1056C0004A68089922FA01F11943A1FB0E26A1FBB1
:1056D0000B131A449A4234BF0123002303EB06083C
:1056E0000CEB8003D3E901A60E448E4234BF0121A6
:1056F000002192448A4411B1924502D903E09245B7
:1057000001D2012100E00021C3E901A641444CF887
:105710002010011EA0F10100C4DC029800F100502D
:10572000850F0298DDE903678000DDF8148001F041
:105730006AFE41EC1A0B304601F07CFE9FED541BD3
:1057400053EC112B01F0C6FE41EC1B0B384601F067
:1057500071FE9FED511B53EC112B01F0BBFE41EC90
:10576000180B404601F066FE9FED4D1B53EC112BCC
:1057700001F0B0FE41EC190B51EC180B53EC192B56
:1057800001F0D0FB53EC1B2B01F0CCFB53EC1A2B9C
:1057900001F0C8FBCDE90801002008909DED080B41
:1057A00053EC1A2B51EC100B02F048F953EC1B2B65
:1057B00002F044F953EC182B02F040F953EC192B8A
:1057C00002F064F89FED381B53EC112B01F082FEC0
:1057D0009FED370B41EC180B53EC102B9DED080B94
:1057E00051EC100B01F076FE53EC182B01F09AFBF4
:1057F0009FED310B41EC180B53EC102B9DED080B7A
:1058000051EC100B01F066FE53EC182B01F08AFBF3
:1058100041EC100B139810F0004F06D06D4251EC84
:10582000100B01F041FB41EC100B284684ED000BFE
:1058300041E6000000000000000000000000000041
:10584000FB21E93F7CD9024000004054FB21F93F95
:105850003163621A61B4D03DFB21F93F00000000C2
:105860000000601A61B4D03D7370032E8A19A33B07
:10587000FB2139410000000083C8C96D305FE43F5F
:10588000000000000000E03FDA2C0000282C00009F
:10589000000000000000103E000000000000103C6E
:1058A000000000000000103A182D4454FB21F93D7F
:1058B0003326A611460B113C00000054FB21F93D94
:1058C00010B52DED040B2DED088B82B0B0EE419A92
:1058D000F0EE619A0B9820F000449FED4BABB4F1D1
:1058E000795F11DA9DED0A0B51EC100B01F02EFDE2
:1058F000002801BFB0EE4A0AF0EE6A0A02B0BDEC21
:10590000088B04BF04B010BD9DED0A0B53EC102BA7
:1059100051EC100B01F0DEFD41EC180B3C48062168
:10592000B0EE480AF0EE680A784400F081F853ECD3
:10593000182B51EC100B01F0CDFD9DED0A0B41EC45
:105940001B0B53EC192B51EC100B01F0C3FD41EC78
:10595000190B53EC1B2B51EC180B01F0BBFD53EC56
:10596000192B02F06BF89FED2C0B41EC190B53EC4B
:10597000102B51EC180B01F0ADFD41EC100B284839
:10598000844210DA53EC192B51EC100B02F056F84C
:1059900053EC1A2B01F07AFF41EC100B02B0BDEC76
:1059A000088B04B010BD1F48A042BCBF9FED1E1B5A
:1059B0008DED001B06DBA4F5001001900020009087
:1059C0009DED001B51EC100B53EC112B02F036F83F
:1059D0009DED000B41EC180B53EC102B51EC1A0B06
:1059E00002F02CF841EC1A0B53EC192B51EC180B6C
:1059F00002F024F853EC1A2B01F048FF41EC100B95
:105A0000CCE7000000000000000000000000F03FB4
:105A10004429000000000000000000000000E03FFA
:105A20003333D33F0000E93F000000000000D23FC5
:105A300070B504462DED028B4D1E00EBC500B0EE97
:105A4000408AF0EE608A90ED000B35F0060017D02A
:105A500053EC182B51EC100B01F03CFD41EC100BFA
:105A60006D1E04EBC50090ED001B51EC100B53ECC8
:105A7000112B01F057FA41EC100B35F00600E7D17D
:105A8000022D36D0042D1CD0062D1CBFBDEC028B80
:105A900070BD53EC182B51EC100B01F01BFD94ED75
:105AA0000A1B53EC112B01F03DFA53EC182B01F0BB
:105AB00011FD94ED081B53EC112B01F033FA41EC6E
:105AC000100B53EC182B51EC100B01F003FD94ED6F
:105AD000061B53EC112B01F025FA53EC182B01F0A7
